{
  "_format": "hh-sol-artifact-1",
  "contractName": "NFTMarketplace",
  "sourceName": "contracts/nftmarketplace.sol",
  "abi": [
    {
      "inputs": [],
      "stateMutability": "nonpayable",
      "type": "constructor"
    },
    {
      "inputs": [
        {
          "internalType": "address",
          "name": "sender",
          "type": "address"
        },
        {
          "internalType": "uint256",
          "name": "tokenId",
          "type": "uint256"
        },
        {
          "internalType": "address",
          "name": "owner",
          "type": "address"
        }
      ],
      "name": "ERC721IncorrectOwner",
      "type": "error"
    },
    {
      "inputs": [
        {
          "internalType": "address",
          "name": "operator",
          "type": "address"
        },
        {
          "internalType": "uint256",
          "name": "tokenId",
          "type": "uint256"
        }
      ],
      "name": "ERC721InsufficientApproval",
      "type": "error"
    },
    {
      "inputs": [
        {
          "internalType": "address",
          "name": "approver",
          "type": "address"
        }
      ],
      "name": "ERC721InvalidApprover",
      "type": "error"
    },
    {
      "inputs": [
        {
          "internalType": "address",
          "name": "operator",
          "type": "address"
        }
      ],
      "name": "ERC721InvalidOperator",
      "type": "error"
    },
    {
      "inputs": [
        {
          "internalType": "address",
          "name": "owner",
          "type": "address"
        }
      ],
      "name": "ERC721InvalidOwner",
      "type": "error"
    },
    {
      "inputs": [
        {
          "internalType": "address",
          "name": "receiver",
          "type": "address"
        }
      ],
      "name": "ERC721InvalidReceiver",
      "type": "error"
    },
    {
      "inputs": [
        {
          "internalType": "address",
          "name": "sender",
          "type": "address"
        }
      ],
      "name": "ERC721InvalidSender",
      "type": "error"
    },
    {
      "inputs": [
        {
          "internalType": "uint256",
          "name": "tokenId",
          "type": "uint256"
        }
      ],
      "name": "ERC721NonexistentToken",
      "type": "error"
    },
    {
      "inputs": [
        {
          "internalType": "address",
          "name": "owner",
          "type": "address"
        }
      ],
      "name": "OwnableInvalidOwner",
      "type": "error"
    },
    {
      "inputs": [
        {
          "internalType": "address",
          "name": "account",
          "type": "address"
        }
      ],
      "name": "OwnableUnauthorizedAccount",
      "type": "error"
    },
    {
      "inputs": [],
      "name": "ReentrancyGuardReentrantCall",
      "type": "error"
    },
    {
      "anonymous": false,
      "inputs": [
        {
          "indexed": true,
          "internalType": "address",
          "name": "owner",
          "type": "address"
        },
        {
          "indexed": true,
          "internalType": "address",
          "name": "approved",
          "type": "address"
        },
        {
          "indexed": true,
          "internalType": "uint256",
          "name": "tokenId",
          "type": "uint256"
        }
      ],
      "name": "Approval",
      "type": "event"
    },
    {
      "anonymous": false,
      "inputs": [
        {
          "indexed": true,
          "internalType": "address",
          "name": "owner",
          "type": "address"
        },
        {
          "indexed": true,
          "internalType": "address",
          "name": "operator",
          "type": "address"
        },
        {
          "indexed": false,
          "internalType": "bool",
          "name": "approved",
          "type": "bool"
        }
      ],
      "name": "ApprovalForAll",
      "type": "event"
    },
    {
      "anonymous": false,
      "inputs": [
        {
          "indexed": true,
          "internalType": "uint256",
          "name": "tokenId",
          "type": "uint256"
        },
        {
          "indexed": true,
          "internalType": "address",
          "name": "seller",
          "type": "address"
        },
        {
          "indexed": false,
          "internalType": "uint256",
          "name": "startingPrice",
          "type": "uint256"
        },
        {
          "indexed": false,
          "internalType": "uint256",
          "name": "duration",
          "type": "uint256"
        }
      ],
      "name": "AuctionCreated",
      "type": "event"
    },
    {
      "anonymous": false,
      "inputs": [
        {
          "indexed": true,
          "internalType": "uint256",
          "name": "tokenId",
          "type": "uint256"
        },
        {
          "indexed": true,
          "internalType": "address",
          "name": "winner",
          "type": "address"
        },
        {
          "indexed": false,
          "internalType": "uint256",
          "name": "finalPrice",
          "type": "uint256"
        }
      ],
      "name": "AuctionEnded",
      "type": "event"
    },
    {
      "anonymous": false,
      "inputs": [
        {
          "indexed": true,
          "internalType": "uint256",
          "name": "tokenId",
          "type": "uint256"
        },
        {
          "indexed": true,
          "internalType": "address",
          "name": "bidder",
          "type": "address"
        },
        {
          "indexed": false,
          "internalType": "uint256",
          "name": "amount",
          "type": "uint256"
        }
      ],
      "name": "BidPlaced",
      "type": "event"
    },
    {
      "anonymous": false,
      "inputs": [
        {
          "indexed": true,
          "internalType": "string",
          "name": "collectionName",
          "type": "string"
        },
        {
          "indexed": true,
          "internalType": "address",
          "name": "creator",
          "type": "address"
        }
      ],
      "name": "CollectionCreated",
      "type": "event"
    },
    {
      "anonymous": false,
      "inputs": [
        {
          "indexed": true,
          "internalType": "uint256",
          "name": "tokenId",
          "type": "uint256"
        },
        {
          "indexed": true,
          "internalType": "address",
          "name": "seller",
          "type": "address"
        }
      ],
      "name": "NFTDelisted",
      "type": "event"
    },
    {
      "anonymous": false,
      "inputs": [
        {
          "indexed": true,
          "internalType": "uint256",
          "name": "tokenId",
          "type": "uint256"
        },
        {
          "indexed": true,
          "internalType": "address",
          "name": "seller",
          "type": "address"
        },
        {
          "indexed": false,
          "internalType": "uint256",
          "name": "price",
          "type": "uint256"
        },
        {
          "indexed": false,
          "internalType": "bool",
          "name": "isAuction",
          "type": "bool"
        }
      ],
      "name": "NFTListed",
      "type": "event"
    },
    {
      "anonymous": false,
      "inputs": [
        {
          "indexed": true,
          "internalType": "uint256",
          "name": "tokenId",
          "type": "uint256"
        },
        {
          "indexed": true,
          "internalType": "address",
          "name": "creator",
          "type": "address"
        },
        {
          "indexed": false,
          "internalType": "string",
          "name": "tokenURI",
          "type": "string"
        },
        {
          "indexed": false,
          "internalType": "uint256",
          "name": "royaltyPercentage",
          "type": "uint256"
        }
      ],
      "name": "NFTMinted",
      "type": "event"
    },
    {
      "anonymous": false,
      "inputs": [
        {
          "indexed": true,
          "internalType": "uint256",
          "name": "tokenId",
          "type": "uint256"
        },
        {
          "indexed": true,
          "internalType": "address",
          "name": "seller",
          "type": "address"
        },
        {
          "indexed": true,
          "internalType": "address",
          "name": "buyer",
          "type": "address"
        },
        {
          "indexed": false,
          "internalType": "uint256",
          "name": "price",
          "type": "uint256"
        }
      ],
      "name": "NFTSold",
      "type": "event"
    },
    {
      "anonymous": false,
      "inputs": [
        {
          "indexed": true,
          "internalType": "address",
          "name": "previousOwner",
          "type": "address"
        },
        {
          "indexed": true,
          "internalType": "address",
          "name": "newOwner",
          "type": "address"
        }
      ],
      "name": "OwnershipTransferred",
      "type": "event"
    },
    {
      "anonymous": false,
      "inputs": [
        {
          "indexed": true,
          "internalType": "uint256",
          "name": "tokenId",
          "type": "uint256"
        },
        {
          "indexed": true,
          "internalType": "address",
          "name": "creator",
          "type": "address"
        },
        {
          "indexed": false,
          "internalType": "uint256",
          "name": "amount",
          "type": "uint256"
        }
      ],
      "name": "RoyaltyPaid",
      "type": "event"
    },
    {
      "anonymous": false,
      "inputs": [
        {
          "indexed": true,
          "internalType": "address",
          "name": "from",
          "type": "address"
        },
        {
          "indexed": true,
          "internalType": "address",
          "name": "to",
          "type": "address"
        },
        {
          "indexed": true,
          "internalType": "uint256",
          "name": "tokenId",
          "type": "uint256"
        }
      ],
      "name": "Transfer",
      "type": "event"
    },
    {
      "inputs": [],
      "name": "BASIS_POINTS",
      "outputs": [
        {
          "internalType": "uint256",
          "name": "",
          "type": "uint256"
        }
      ],
      "stateMutability": "view",
      "type": "function"
    },
    {
      "inputs": [
        {
          "internalType": "address",
          "name": "to",
          "type": "address"
        },
        {
          "internalType": "uint256",
          "name": "tokenId",
          "type": "uint256"
        }
      ],
      "name": "approve",
      "outputs": [],
      "stateMutability": "nonpayable",
      "type": "function"
    },
    {
      "inputs": [
        {
          "internalType": "address",
          "name": "owner",
          "type": "address"
        }
      ],
      "name": "balanceOf",
      "outputs": [
        {
          "internalType": "uint256",
          "name": "",
          "type": "uint256"
        }
      ],
      "stateMutability": "view",
      "type": "function"
    },
    {
      "inputs": [
        {
          "internalType": "uint256",
          "name": "tokenId",
          "type": "uint256"
        }
      ],
      "name": "buyNFT",
      "outputs": [],
      "stateMutability": "payable",
      "type": "function"
    },
    {
      "inputs": [
        {
          "internalType": "string",
          "name": "",
          "type": "string"
        }
      ],
      "name": "collections",
      "outputs": [
        {
          "internalType": "string",
          "name": "name",
          "type": "string"
        },
        {
          "internalType": "string",
          "name": "description",
          "type": "string"
        },
        {
          "internalType": "address",
          "name": "creator",
          "type": "address"
        },
        {
          "internalType": "bool",
          "name": "exists",
          "type": "bool"
        }
      ],
      "stateMutability": "view",
      "type": "function"
    },
    {
      "inputs": [
        {
          "internalType": "uint256",
          "name": "tokenId",
          "type": "uint256"
        }
      ],
      "name": "delistNFT",
      "outputs": [],
      "stateMutability": "nonpayable",
      "type": "function"
    },
    {
      "inputs": [
        {
          "internalType": "uint256",
          "name": "tokenId",
          "type": "uint256"
        }
      ],
      "name": "endAuction",
      "outputs": [],
      "stateMutability": "nonpayable",
      "type": "function"
    },
    {
      "inputs": [
        {
          "internalType": "uint256",
          "name": "tokenId",
          "type": "uint256"
        }
      ],
      "name": "getApproved",
      "outputs": [
        {
          "internalType": "address",
          "name": "",
          "type": "address"
        }
      ],
      "stateMutability": "view",
      "type": "function"
    },
    {
      "inputs": [
        {
          "internalType": "string",
          "name": "collectionName",
          "type": "string"
        }
      ],
      "name": "getCollection",
      "outputs": [
        {
          "components": [
            {
              "internalType": "string",
              "name": "name",
              "type": "string"
            },
            {
              "internalType": "string",
              "name": "description",
              "type": "string"
            },
            {
              "internalType": "address",
              "name": "creator",
              "type": "address"
            },
            {
              "internalType": "uint256[]",
              "name": "tokenIds",
              "type": "uint256[]"
            },
            {
              "internalType": "bool",
              "name": "exists",
              "type": "bool"
            }
          ],
          "internalType": "struct NFTMarketplace.Collection",
          "name": "",
          "type": "tuple"
        }
      ],
      "stateMutability": "view",
      "type": "function"
    },
    {
      "inputs": [
        {
          "internalType": "uint256",
          "name": "tokenId",
          "type": "uint256"
        }
      ],
      "name": "getListing",
      "outputs": [
        {
          "components": [
            {
              "internalType": "address",
              "name": "seller",
              "type": "address"
            },
            {
              "internalType": "uint256",
              "name": "price",
              "type": "uint256"
            },
            {
              "internalType": "bool",
              "name": "isActive",
              "type": "bool"
            },
            {
              "internalType": "bool",
              "name": "isAuction",
              "type": "bool"
            },
            {
              "internalType": "uint256",
              "name": "auctionEndTime",
              "type": "uint256"
            },
            {
              "internalType": "uint256",
              "name": "startingPrice",
              "type": "uint256"
            },
            {
              "internalType": "uint256",
              "name": "highestBid",
              "type": "uint256"
            },
            {
              "internalType": "address",
              "name": "highestBidder",
              "type": "address"
            }
          ],
          "internalType": "struct NFTMarketplace.Listing",
          "name": "",
          "type": "tuple"
        }
      ],
      "stateMutability": "view",
      "type": "function"
    },
    {
      "inputs": [
        {
          "internalType": "uint256",
          "name": "tokenId",
          "type": "uint256"
        }
      ],
      "name": "getNFTMetadata",
      "outputs": [
        {
          "components": [
            {
              "internalType": "string",
              "name": "name",
              "type": "string"
            },
            {
              "internalType": "string",
              "name": "description",
              "type": "string"
            },
            {
              "internalType": "string",
              "name": "imageURI",
              "type": "string"
            },
            {
              "internalType": "string",
              "name": "category",
              "type": "string"
            },
            {
              "internalType": "uint256",
              "name": "royaltyPercentage",
              "type": "uint256"
            },
            {
              "internalType": "address",
              "name": "creator",
              "type": "address"
            },
            {
              "internalType": "uint256",
              "name": "createdAt",
              "type": "uint256"
            },
            {
              "internalType": "string",
              "name": "collection",
              "type": "string"
            }
          ],
          "internalType": "struct NFTMarketplace.NFTMetadata",
          "name": "",
          "type": "tuple"
        }
      ],
      "stateMutability": "view",
      "type": "function"
    },
    {
      "inputs": [
        {
          "internalType": "address",
          "name": "user",
          "type": "address"
        }
      ],
      "name": "getUserListings",
      "outputs": [
        {
          "internalType": "uint256[]",
          "name": "",
          "type": "uint256[]"
        }
      ],
      "stateMutability": "view",
      "type": "function"
    },
    {
      "inputs": [
        {
          "internalType": "address",
          "name": "user",
          "type": "address"
        }
      ],
      "name": "getUserNFTs",
      "outputs": [
        {
          "internalType": "uint256[]",
          "name": "",
          "type": "uint256[]"
        }
      ],
      "stateMutability": "view",
      "type": "function"
    },
    {
      "inputs": [
        {
          "internalType": "address",
          "name": "owner",
          "type": "address"
        },
        {
          "internalType": "address",
          "name": "operator",
          "type": "address"
        }
      ],
      "name": "isApprovedForAll",
      "outputs": [
        {
          "internalType": "bool",
          "name": "",
          "type": "bool"
        }
      ],
      "stateMutability": "view",
      "type": "function"
    },
    {
      "inputs": [
        {
          "internalType": "uint256",
          "name": "tokenId",
          "type": "uint256"
        },
        {
          "internalType": "uint256",
          "name": "price",
          "type": "uint256"
        },
        {
          "internalType": "bool",
          "name": "isAuction",
          "type": "bool"
        },
        {
          "internalType": "uint256",
          "name": "auctionDuration",
          "type": "uint256"
        }
      ],
      "name": "listNFT",
      "outputs": [],
      "stateMutability": "nonpayable",
      "type": "function"
    },
    {
      "inputs": [
        {
          "internalType": "uint256",
          "name": "",
          "type": "uint256"
        }
      ],
      "name": "listings",
      "outputs": [
        {
          "internalType": "address",
          "name": "seller",
          "type": "address"
        },
        {
          "internalType": "uint256",
          "name": "price",
          "type": "uint256"
        },
        {
          "internalType": "bool",
          "name": "isActive",
          "type": "bool"
        },
        {
          "internalType": "bool",
          "name": "isAuction",
          "type": "bool"
        },
        {
          "internalType": "uint256",
          "name": "auctionEndTime",
          "type": "uint256"
        },
        {
          "internalType": "uint256",
          "name": "startingPrice",
          "type": "uint256"
        },
        {
          "internalType": "uint256",
          "name": "highestBid",
          "type": "uint256"
        },
        {
          "internalType": "address",
          "name": "highestBidder",
          "type": "address"
        }
      ],
      "stateMutability": "view",
      "type": "function"
    },
    {
      "inputs": [],
      "name": "marketplaceFee",
      "outputs": [
        {
          "internalType": "uint256",
          "name": "",
          "type": "uint256"
        }
      ],
      "stateMutability": "view",
      "type": "function"
    },
    {
      "inputs": [
        {
          "internalType": "string",
          "name": "name",
          "type": "string"
        },
        {
          "internalType": "string",
          "name": "description",
          "type": "string"
        },
        {
          "internalType": "string",
          "name": "imageURI",
          "type": "string"
        },
        {
          "internalType": "string",
          "name": "category",
          "type": "string"
        },
        {
          "internalType": "uint256",
          "name": "royaltyPercentage",
          "type": "uint256"
        },
        {
          "internalType": "string",
          "name": "collectionName",
          "type": "string"
        }
      ],
      "name": "mintNFT",
      "outputs": [
        {
          "internalType": "uint256",
          "name": "",
          "type": "uint256"
        }
      ],
      "stateMutability": "nonpayable",
      "type": "function"
    },
    {
      "inputs": [],
      "name": "name",
      "outputs": [
        {
          "internalType": "string",
          "name": "",
          "type": "string"
        }
      ],
      "stateMutability": "view",
      "type": "function"
    },
    {
      "inputs": [
        {
          "internalType": "uint256",
          "name": "",
          "type": "uint256"
        }
      ],
      "name": "nftMetadata",
      "outputs": [
        {
          "internalType": "string",
          "name": "name",
          "type": "string"
        },
        {
          "internalType": "string",
          "name": "description",
          "type": "string"
        },
        {
          "internalType": "string",
          "name": "imageURI",
          "type": "string"
        },
        {
          "internalType": "string",
          "name": "category",
          "type": "string"
        },
        {
          "internalType": "uint256",
          "name": "royaltyPercentage",
          "type": "uint256"
        },
        {
          "internalType": "address",
          "name": "creator",
          "type": "address"
        },
        {
          "internalType": "uint256",
          "name": "createdAt",
          "type": "uint256"
        },
        {
          "internalType": "string",
          "name": "collection",
          "type": "string"
        }
      ],
      "stateMutability": "view",
      "type": "function"
    },
    {
      "inputs": [],
      "name": "owner",
      "outputs": [
        {
          "internalType": "address",
          "name": "",
          "type": "address"
        }
      ],
      "stateMutability": "view",
      "type": "function"
    },
    {
      "inputs": [
        {
          "internalType": "uint256",
          "name": "tokenId",
          "type": "uint256"
        }
      ],
      "name": "ownerOf",
      "outputs": [
        {
          "internalType": "address",
          "name": "",
          "type": "address"
        }
      ],
      "stateMutability": "view",
      "type": "function"
    },
    {
      "inputs": [
        {
          "internalType": "uint256",
          "name": "tokenId",
          "type": "uint256"
        }
      ],
      "name": "placeBid",
      "outputs": [],
      "stateMutability": "payable",
      "type": "function"
    },
    {
      "inputs": [],
      "name": "renounceOwnership",
      "outputs": [],
      "stateMutability": "nonpayable",
      "type": "function"
    },
    {
      "inputs": [
        {
          "internalType": "address",
          "name": "from",
          "type": "address"
        },
        {
          "internalType": "address",
          "name": "to",
          "type": "address"
        },
        {
          "internalType": "uint256",
          "name": "tokenId",
          "type": "uint256"
        }
      ],
      "name": "safeTransferFrom",
      "outputs": [],
      "stateMutability": "nonpayable",
      "type": "function"
    },
    {
      "inputs": [
        {
          "internalType": "address",
          "name": "from",
          "type": "address"
        },
        {
          "internalType": "address",
          "name": "to",
          "type": "address"
        },
        {
          "internalType": "uint256",
          "name": "tokenId",
          "type": "uint256"
        },
        {
          "internalType": "bytes",
          "name": "data",
          "type": "bytes"
        }
      ],
      "name": "safeTransferFrom",
      "outputs": [],
      "stateMutability": "nonpayable",
      "type": "function"
    },
    {
      "inputs": [
        {
          "internalType": "address",
          "name": "operator",
          "type": "address"
        },
        {
          "internalType": "bool",
          "name": "approved",
          "type": "bool"
        }
      ],
      "name": "setApprovalForAll",
      "outputs": [],
      "stateMutability": "nonpayable",
      "type": "function"
    },
    {
      "inputs": [
        {
          "internalType": "bytes4",
          "name": "interfaceId",
          "type": "bytes4"
        }
      ],
      "name": "supportsInterface",
      "outputs": [
        {
          "internalType": "bool",
          "name": "",
          "type": "bool"
        }
      ],
      "stateMutability": "view",
      "type": "function"
    },
    {
      "inputs": [],
      "name": "symbol",
      "outputs": [
        {
          "internalType": "string",
          "name": "",
          "type": "string"
        }
      ],
      "stateMutability": "view",
      "type": "function"
    },
    {
      "inputs": [
        {
          "internalType": "uint256",
          "name": "",
          "type": "uint256"
        }
      ],
      "name": "tokenExists",
      "outputs": [
        {
          "internalType": "bool",
          "name": "",
          "type": "bool"
        }
      ],
      "stateMutability": "view",
      "type": "function"
    },
    {
      "inputs": [
        {
          "internalType": "uint256",
          "name": "tokenId",
          "type": "uint256"
        }
      ],
      "name": "tokenURI",
      "outputs": [
        {
          "internalType": "string",
          "name": "",
          "type": "string"
        }
      ],
      "stateMutability": "view",
      "type": "function"
    },
    {
      "inputs": [
        {
          "internalType": "address",
          "name": "from",
          "type": "address"
        },
        {
          "internalType": "address",
          "name": "to",
          "type": "address"
        },
        {
          "internalType": "uint256",
          "name": "tokenId",
          "type": "uint256"
        }
      ],
      "name": "transferFrom",
      "outputs": [],
      "stateMutability": "nonpayable",
      "type": "function"
    },
    {
      "inputs": [
        {
          "internalType": "address",
          "name": "newOwner",
          "type": "address"
        }
      ],
      "name": "transferOwnership",
      "outputs": [],
      "stateMutability": "nonpayable",
      "type": "function"
    },
    {
      "inputs": [
        {
          "internalType": "uint256",
          "name": "newFee",
          "type": "uint256"
        }
      ],
      "name": "updateMarketplaceFee",
      "outputs": [],
      "stateMutability": "nonpayable",
      "type": "function"
    },
    {
      "inputs": [
        {
          "internalType": "address",
          "name": "",
          "type": "address"
        },
        {
          "internalType": "uint256",
          "name": "",
          "type": "uint256"
        }
      ],
      "name": "userListings",
      "outputs": [
        {
          "internalType": "uint256",
          "name": "",
          "type": "uint256"
        }
      ],
      "stateMutability": "view",
      "type": "function"
    },
    {
      "inputs": [
        {
          "internalType": "address",
          "name": "",
          "type": "address"
        },
        {
          "internalType": "uint256",
          "name": "",
          "type": "uint256"
        }
      ],
      "name": "userNFTs",
      "outputs": [
        {
          "internalType": "uint256",
          "name": "",
          "type": "uint256"
        }
      ],
      "stateMutability": "view",
      "type": "function"
    },
    {
      "inputs": [],
      "name": "withdrawFees",
      "outputs": [],
      "stateMutability": "nonpayable",
      "type": "function"
    }
  ],
  "bytecode": "0x608060405260fa6009553480156200001657600080fd5b50336040518060400160405280600e81526020016d4e46544d61726b6574706c61636560901b815250604051806040016040528060048152602001634e46544d60e01b81525081600090816200006d9190620001bc565b5060016200007c8282620001bc565b50506001600655506001600160a01b038116620000b357604051631e4fbdf760e01b81526000600482015260240160405180910390fd5b620000be81620000c5565b5062000288565b600780546001600160a01b038381166001600160a01b0319831681179093556040519116919082907f8be0079c531659141344cd1fd0a4f28419497f9722a3daafe3b4186f6b6457e090600090a35050565b634e487b7160e01b600052604160045260246000fd5b600181811c908216806200014257607f821691505b6020821081036200016357634e487b7160e01b600052602260045260246000fd5b50919050565b601f821115620001b757600081815260208120601f850160051c81016020861015620001925750805b601f850160051c820191505b81811015620001b3578281556001016200019e565b5050505b505050565b81516001600160401b03811115620001d857620001d862000117565b620001f081620001e984546200012d565b8462000169565b602080601f8311600181146200022857600084156200020f5750858301515b600019600386901b1c1916600185901b178555620001b3565b600085815260208120601f198616915b82811015620002595788860151825594840194600190910190840162000238565b5085821015620002785787850151600019600388901b60f8161c191681555b5050505050600190811b01905550565b613e8980620002986000396000f3fe6080604052600436106102185760003560e01c80636a16696411610123578063a22cb465116100ab578063de74e57b1161006f578063de74e57b14610799578063e1f1c4a714610852578063e985e9c514610868578063eb18a9d814610888578063f2fde38b146108a857600080fd5b8063a22cb465146106f9578063b88d4fde14610719578063b9a2de3a14610739578063c87b56dd14610759578063cb917b9c1461077957600080fd5b806386cfa7d3116100f257806386cfa7d3146106735780638a797d52146106935780638da5cb5b146106b357806395d89b41146106d15780639979ef45146106e657600080fd5b80636a166964146105fb5780636be9a6f11461061157806370a082311461063e578063715018a61461065e57600080fd5b8063291c73c3116101a65780634954101511610175578063495410151461053757806351ed82881461056b57806352de4ee51461057e5780636352211e146105ab57806366e54d7b146105cb57600080fd5b8063291c73c3146104c257806330eb80cd146104e257806342842e0e14610502578063476343ee1461052257600080fd5b8063081812fc116101ed578063081812fc146102d2578063095ea7b31461030a5780630ff79b331461032c578063107a274a1461035957806323b872dd146104a257600080fd5b80621212131461021d578062923f9e1461025057806301ffc9a71461029057806306fdde03146102b0575b600080fd5b34801561022957600080fd5b5061023d610238366004613573565b6108c8565b6040519081526020015b60405180910390f35b34801561025c57600080fd5b5061028061026b36600461364d565b600f6020526000908152604090205460ff1681565b6040519015158152602001610247565b34801561029c57600080fd5b506102806102ab36600461367c565b610d1a565b3480156102bc57600080fd5b506102c5610d6c565b60405161024791906136e9565b3480156102de57600080fd5b506102f26102ed36600461364d565b610dfe565b6040516001600160a01b039091168152602001610247565b34801561031657600080fd5b5061032a610325366004613718565b610e27565b005b34801561033857600080fd5b5061034c610347366004613742565b610e36565b60405161024791906137b2565b34801561036557600080fd5b5061043661037436600461364d565b6040805161010081018252600080825260208201819052918101829052606081018290526080810182905260a0810182905260c0810182905260e0810191909152506000908152600a60209081526040918290208251610100808201855282546001600160a01b039081168352600184015494830194909452600283015460ff808216151596840196909652049093161515606084015260038101546080840152600481015460a0840152600581015460c0840152600601541660e082015290565b604051610247919081516001600160a01b039081168252602080840151908301526040808401511515908301526060808401511515908301526080808401519083015260a0838101519083015260c0808401519083015260e09283015116918101919091526101000190565b3480156104ae57600080fd5b5061032a6104bd366004613838565b61102c565b3480156104ce57600080fd5b5061023d6104dd366004613718565b6110b7565b3480156104ee57600080fd5b5061032a6104fd36600461364d565b6110e8565b34801561050e57600080fd5b5061032a61051d366004613838565b61113f565b34801561052e57600080fd5b5061032a61115f565b34801561054357600080fd5b5061055761055236600461364d565b6111a3565b604051610247989796959493929190613874565b61032a61057936600461364d565b61149a565b34801561058a57600080fd5b5061059e610599366004613904565b61186b565b604051610247919061391f565b3480156105b757600080fd5b506102f26105c636600461364d565b6118d7565b3480156105d757600080fd5b506105eb6105e6366004613742565b6118e2565b6040516102479493929190613932565b34801561060757600080fd5b5061023d60095481565b34801561061d57600080fd5b5061063161062c36600461364d565b611a32565b6040516102479190613979565b34801561064a57600080fd5b5061023d610659366004613904565b611dff565b34801561066a57600080fd5b5061032a611e47565b34801561067f57600080fd5b5061023d61068e366004613718565b611e5b565b34801561069f57600080fd5b5061032a6106ae366004613a57565b611e77565b3480156106bf57600080fd5b506007546001600160a01b03166102f2565b3480156106dd57600080fd5b506102c5612251565b61032a6106f436600461364d565b612260565b34801561070557600080fd5b5061032a610714366004613a94565b6124ed565b34801561072557600080fd5b5061032a610734366004613ac7565b6124f8565b34801561074557600080fd5b5061032a61075436600461364d565b612510565b34801561076557600080fd5b506102c561077436600461364d565b6128ce565b34801561078557600080fd5b5061032a61079436600461364d565b6129c3565b3480156107a557600080fd5b506108046107b436600461364d565b600a6020526000908152604090208054600182015460028301546003840154600485015460058601546006909601546001600160a01b0395861696949560ff808616966101009096041694911688565b604080516001600160a01b03998a1681526020810198909852951515958701959095529215156060860152608085019190915260a084015260c083015290911660e082015261010001610247565b34801561085e57600080fd5b5061023d61271081565b34801561087457600080fd5b50610280610883366004613b43565b612b78565b34801561089457600080fd5b5061059e6108a3366004613904565b612ba6565b3480156108b457600080fd5b5061032a6108c3366004613904565b612c10565b6000808751116109165760405162461bcd60e51b81526020600482015260146024820152734e616d652063616e6e6f7420626520656d70747960601b60448201526064015b60405180910390fd5b60008551116109675760405162461bcd60e51b815260206004820152601960248201527f496d616765205552492063616e6e6f7420626520656d70747900000000000000604482015260640161090d565b6103e88311156109b95760405162461bcd60e51b815260206004820152601960248201527f526f79616c74792063616e6e6f74206578636565642031302500000000000000604482015260640161090d565b600880549060006109c983613b83565b9091555050600854604051600c906109e2908590613b9c565b90815260405190819003602001902080546109fc90613bb8565b9050600003610b6a576040518060a00160405280848152602001604051806020016040528060008152508152602001336001600160a01b03168152602001600067ffffffffffffffff811115610a5457610a546134c0565b604051908082528060200260200182016040528015610a7d578160200160208202803683370190505b5081526001602090910152604051600c90610a99908690613b9c565b90815260405190819003602001902081518190610ab69082613c32565b5060208201516001820190610acb9082613c32565b5060408201516002820180546001600160a01b0319166001600160a01b0390921691909117905560608201518051610b0d916003840191602090910190613460565b50608091909101516004909101805460ff19169115159190911790556040513390610b39908590613b9c565b604051908190038120907f2660dd916ec25bcad9a3dd62c721e438ec0e975817265c1e03c2639b24ac700790600090a35b600c83604051610b7a9190613b9c565b9081526040805191829003602090810183206003018054600181018255600091825282822001859055610100840183528b84528382018b90528383018a905260608401899052608084018890523360a08501524260c085015260e08401879052848152600b9091522081518190610bf19082613c32565b5060208201516001820190610c069082613c32565b5060408201516002820190610c1b9082613c32565b5060608201516003820190610c309082613c32565b506080820151600482015560a08201516005820180546001600160a01b0319166001600160a01b0390921691909117905560c0820151600682015560e08201516007820190610c7f9082613c32565b50905050610c8d3382612c4b565b610c978187612c65565b6000818152600f60209081526040808320805460ff1916600190811790915533808552600d845282852080549283018155855292909320909201839055905182907f23eae53a2b33c20fc1b74912840a6a2a72adc26effa68729f81e756c875df28990610d07908a908990613cf2565b60405180910390a3979650505050505050565b60006001600160e01b031982166380ac58cd60e01b1480610d4b57506001600160e01b03198216635b5e139f60e01b145b80610d6657506301ffc9a760e01b6001600160e01b03198316145b92915050565b606060008054610d7b90613bb8565b80601f0160208091040260200160405190810160405280929190818152602001828054610da790613bb8565b8015610df45780601f10610dc957610100808354040283529160200191610df4565b820191906000526020600020905b815481529060010190602001808311610dd757829003601f168201915b5050505050905090565b6000610e0982612c7d565b506000828152600460205260409020546001600160a01b0316610d66565b610e32828233612cb6565b5050565b6040805160a0810182526060808252602082018190526000928201839052808201526080810191909152600c82604051610e709190613b9c565b90815260200160405180910390206040518060a0016040529081600082018054610e9990613bb8565b80601f0160208091040260200160405190810160405280929190818152602001828054610ec590613bb8565b8015610f125780601f10610ee757610100808354040283529160200191610f12565b820191906000526020600020905b815481529060010190602001808311610ef557829003601f168201915b50505050508152602001600182018054610f2b90613bb8565b80601f0160208091040260200160405190810160405280929190818152602001828054610f5790613bb8565b8015610fa45780601f10610f7957610100808354040283529160200191610fa4565b820191906000526020600020905b815481529060010190602001808311610f8757829003601f168201915b505050918352505060028201546001600160a01b0316602080830191909152600383018054604080518285028101850182528281529401939283018282801561100c57602002820191906000526020600020905b815481526020019060010190808311610ff8575b50505091835250506004919091015460ff16151560209091015292915050565b6001600160a01b03821661105657604051633250574960e11b81526000600482015260240161090d565b6000611063838333612cc3565b9050836001600160a01b0316816001600160a01b0316146110b1576040516364283d7b60e01b81526001600160a01b038086166004830152602482018490528216604482015260640161090d565b50505050565b600d60205281600052604060002081815481106110d357600080fd5b90600052602060002001600091509150505481565b6110f0612dbc565b6103e881111561113a5760405162461bcd60e51b81526020600482015260156024820152744665652063616e6e6f74206578636565642031302560581b604482015260640161090d565b600955565b61115a838383604051806020016040528060008152506124f8565b505050565b611167612dbc565b6007546040516001600160a01b03909116904780156108fc02916000818181858888f193505050501580156111a0573d6000803e3d6000fd5b50565b600b602052600090815260409020805481906111be90613bb8565b80601f01602080910402602001604051908101604052809291908181526020018280546111ea90613bb8565b80156112375780601f1061120c57610100808354040283529160200191611237565b820191906000526020600020905b81548152906001019060200180831161121a57829003601f168201915b50505050509080600101805461124c90613bb8565b80601f016020809104026020016040519081016040528092919081815260200182805461127890613bb8565b80156112c55780601f1061129a576101008083540402835291602001916112c5565b820191906000526020600020905b8154815290600101906020018083116112a857829003601f168201915b5050505050908060020180546112da90613bb8565b80601f016020809104026020016040519081016040528092919081815260200182805461130690613bb8565b80156113535780601f1061132857610100808354040283529160200191611353565b820191906000526020600020905b81548152906001019060200180831161133657829003601f168201915b50505050509080600301805461136890613bb8565b80601f016020809104026020016040519081016040528092919081815260200182805461139490613bb8565b80156113e15780601f106113b6576101008083540402835291602001916113e1565b820191906000526020600020905b8154815290600101906020018083116113c457829003601f168201915b505050600484015460058501546006860154600787018054969793966001600160a01b0390931695509093509061141790613bb8565b80601f016020809104026020016040519081016040528092919081815260200182805461144390613bb8565b80156114905780601f1061146557610100808354040283529160200191611490565b820191906000526020600020905b81548152906001019060200180831161147357829003601f168201915b5050505050905088565b6114a2612de9565b6000818152600a6020526040902060020154819060ff166114d55760405162461bcd60e51b815260040161090d90613d14565b6000828152600a602052604090206002810154610100900460ff161561154e5760405162461bcd60e51b815260206004820152602860248201527f5468697320697320616e2061756374696f6e2c2075736520706c616365426964604482015267081a5b9cdd19585960c21b606482015260840161090d565b806001015434146115935760405162461bcd60e51b815260206004820152600f60248201526e496e636f727265637420707269636560881b604482015260640161090d565b80546001600160a01b031633036115ec5760405162461bcd60e51b815260206004820152601760248201527f43616e6e6f742062757920796f7572206f776e204e4654000000000000000000604482015260640161090d565b805460018201546009546001600160a01b0390921691600090612710906116139084613d4b565b61161d9190613d62565b6000878152600b602052604081206004015491925090612710906116419085613d4b565b61164b9190613d62565b905060008161165a8486613d84565b6116649190613d84565b905061167185338a612e13565b61167b8589612ec3565b336000908152600d60209081526040822080546001810182559083529120018890556116a78589612f91565b6000888152600a602052604080822080546001600160a01b031990811682556001820184905560028201805461ffff19169055600382018490556004820184905560058201849055600690910180549091169055516001600160a01b0387169183156108fc02918491818181858888f1935050505015801561172d573d6000803e3d6000fd5b506007546040516001600160a01b039091169084156108fc029085906000818181858888f19350505050158015611768573d6000803e3d6000fd5b50811561180c576000888152600b60205260408082206005015490516001600160a01b039091169184156108fc02918591818181858888f193505050501580156117b6573d6000803e3d6000fd5b506000888152600b60209081526040918290206005015491518481526001600160a01b03909216918a917ff670029fc6f5302baba881b4ae845d1453acdf752b4c19ed81fe0fa6a686409b910160405180910390a35b336001600160a01b0316856001600160a01b0316897f8562eb94748e30bb0071e932744ce902b460c683474fcb3bfd567ffa16b1afb28760405161185291815260200190565b60405180910390a4505050505050506111a06001600655565b6001600160a01b0381166000908152600d60209081526040918290208054835181840281018401909452808452606093928301828280156118cb57602002820191906000526020600020905b8154815260200190600101908083116118b7575b50505050509050919050565b6000610d6682612c7d565b8051602081830181018051600c8252928201919093012091528054819061190890613bb8565b80601f016020809104026020016040519081016040528092919081815260200182805461193490613bb8565b80156119815780601f1061195657610100808354040283529160200191611981565b820191906000526020600020905b81548152906001019060200180831161196457829003601f168201915b50505050509080600101805461199690613bb8565b80601f01602080910402602001604051908101604052809291908181526020018280546119c290613bb8565b8015611a0f5780601f106119e457610100808354040283529160200191611a0f565b820191906000526020600020905b8154815290600101906020018083116119f257829003601f168201915b50505050600283015460049093015491926001600160a01b03169160ff16905084565b611a83604051806101000160405280606081526020016060815260200160608152602001606081526020016000815260200160006001600160a01b0316815260200160008152602001606081525090565b6000828152600f6020526040902054829060ff16611ad85760405162461bcd60e51b815260206004820152601260248201527113919508191bd95cc81b9bdd08195e1a5cdd60721b604482015260640161090d565b6000838152600b60205260409081902081516101008101909252805482908290611b0190613bb8565b80601f0160208091040260200160405190810160405280929190818152602001828054611b2d90613bb8565b8015611b7a5780601f10611b4f57610100808354040283529160200191611b7a565b820191906000526020600020905b815481529060010190602001808311611b5d57829003601f168201915b50505050508152602001600182018054611b9390613bb8565b80601f0160208091040260200160405190810160405280929190818152602001828054611bbf90613bb8565b8015611c0c5780601f10611be157610100808354040283529160200191611c0c565b820191906000526020600020905b815481529060010190602001808311611bef57829003601f168201915b50505050508152602001600282018054611c2590613bb8565b80601f0160208091040260200160405190810160405280929190818152602001828054611c5190613bb8565b8015611c9e5780601f10611c7357610100808354040283529160200191611c9e565b820191906000526020600020905b815481529060010190602001808311611c8157829003601f168201915b50505050508152602001600382018054611cb790613bb8565b80601f0160208091040260200160405190810160405280929190818152602001828054611ce390613bb8565b8015611d305780601f10611d0557610100808354040283529160200191611d30565b820191906000526020600020905b815481529060010190602001808311611d1357829003601f168201915b50505091835250506004820154602082015260058201546001600160a01b0316604082015260068201546060820152600782018054608090920191611d7490613bb8565b80601f0160208091040260200160405190810160405280929190818152602001828054611da090613bb8565b8015611ded5780601f10611dc257610100808354040283529160200191611ded565b820191906000526020600020905b815481529060010190602001808311611dd057829003601f168201915b50505050508152505091505b50919050565b60006001600160a01b038216611e2b576040516322718ad960e21b81526000600482015260240161090d565b506001600160a01b031660009081526003602052604090205490565b611e4f612dbc565b611e596000612ff9565b565b600e60205281600052604060002081815481106110d357600080fd5b6000848152600f6020526040902054849060ff16611ecc5760405162461bcd60e51b815260206004820152601260248201527113919508191bd95cc81b9bdd08195e1a5cdd60721b604482015260640161090d565b8433611ed7826118d7565b6001600160a01b031614611efd5760405162461bcd60e51b815260040161090d90613d97565b60008511611f4d5760405162461bcd60e51b815260206004820152601c60248201527f5072696365206d7573742062652067726561746572207468616e203000000000604482015260640161090d565b6000868152600a602052604090206002015460ff1615611fa45760405162461bcd60e51b815260206004820152601260248201527113919508185b1c9958591e481b1a5cdd195960721b604482015260640161090d565b33611fae876118d7565b6001600160a01b031614611fd45760405162461bcd60e51b815260040161090d90613d97565b831561209b576000831161203a5760405162461bcd60e51b815260206004820152602760248201527f41756374696f6e206475726174696f6e206d75737420626520677265617465726044820152660207468616e20360cc1b606482015260840161090d565b62093a8083111561209b5760405162461bcd60e51b815260206004820152602560248201527f41756374696f6e206475726174696f6e2063616e6e6f74206578636565642037604482015264206461797360d81b606482015260840161090d565b604051806101000160405280336001600160a01b031681526020018681526020016001151581526020018515158152602001856120d95760006120e3565b6120e38542613dc4565b8152602001856120f45760006120f6565b865b8152600060208083018290526040928301829052898252600a8152828220845181546001600160a01b039182166001600160a01b0319918216178355868401516001808501919091558787015160028501805460608b015115156101000261ff00199315159390931661ffff19909116179190911790556080880151600385015560a0880151600485015560c0880151600585015560e0909701516006909301805493909216921691909117905533808352600e825283832080549586018155835291209092018890555187907f24350f4a2f19ebbb7ff7b6382829d6153284056cce5825f1353ed4f6f6f67730906121fd90899089909182521515602082015260400190565b60405180910390a38315612249576040805186815260208101859052339188917fc9050d42180a61cb0d9ebb8ad118b62fe6eab12cf12ff752c4a0cc7da9ddf627910160405180910390a35b505050505050565b606060018054610d7b90613bb8565b612268612de9565b6000818152600a60205260409020600201548190610100900460ff166122c15760405162461bcd60e51b815260206004820152600e60248201526d2737ba1030b71030bab1ba34b7b760911b604482015260640161090d565b6000818152600a602052604090206003015442106123115760405162461bcd60e51b815260206004820152600d60248201526c105d58dd1a5bdb88195b991959609a1b604482015260640161090d565b6000828152600a6020526040902080546001600160a01b031633036123785760405162461bcd60e51b815260206004820152601e60248201527f43616e6e6f7420626964206f6e20796f7572206f776e2061756374696f6e0000604482015260640161090d565b806005015434116123d75760405162461bcd60e51b815260206004820152602360248201527f426964206d75737420626520686967686572207468616e2063757272656e7420604482015262189a5960ea1b606482015260840161090d565b80600401543410156124375760405162461bcd60e51b815260206004820152602360248201527f426964206d757374206265206174206c65617374207374617274696e6720707260448201526269636560e81b606482015260840161090d565b60068101546001600160a01b03161561248c57600681015460058201546040516001600160a01b039092169181156108fc0291906000818181858888f1935050505015801561248a573d6000803e3d6000fd5b505b34600582018190556006820180546001600160a01b031916339081179091556040519182529084907f0e54eff26401bf69b81b26f60bd85ef47f5d85275c1d268d84f68d6897431c479060200160405180910390a350506111a06001600655565b610e3233838361304b565b61250384848461102c565b6110b133858585856130ea565b612518612de9565b6000818152600a6020526040902060020154819060ff1661254b5760405162461bcd60e51b815260040161090d90613d14565b6000828152600a602052604090206002810154610100900460ff166125a35760405162461bcd60e51b815260206004820152600e60248201526d2737ba1030b71030bab1ba34b7b760911b604482015260640161090d565b80600301544210156125ef5760405162461bcd60e51b8152602060048201526015602482015274105d58dd1a5bdb881b9bdd08195b991959081e595d605a1b604482015260640161090d565b8054600682015460058301546001600160a01b0392831692909116908115612828576000612710600954836126249190613d4b565b61262e9190613d62565b6000888152600b602052604081206004015491925090612710906126529085613d4b565b61265c9190613d62565b905060008161266b8486613d84565b6126759190613d84565b905061268286868b612e13565b61268c868a612ec3565b6001600160a01b0385166000908152600d60209081526040822080546001810182559083529120018990556126c1868a612f91565b6040516001600160a01b0387169082156108fc029083906000818181858888f193505050501580156126f7573d6000803e3d6000fd5b506007546040516001600160a01b039091169084156108fc029085906000818181858888f19350505050158015612732573d6000803e3d6000fd5b5081156127d6576000898152600b60205260408082206005015490516001600160a01b039091169184156108fc02918591818181858888f19350505050158015612780573d6000803e3d6000fd5b506000898152600b60209081526040918290206005015491518481526001600160a01b03909216918b917ff670029fc6f5302baba881b4ae845d1453acdf752b4c19ed81fe0fa6a686409b910160405180910390a35b846001600160a01b0316866001600160a01b03168a7f8562eb94748e30bb0071e932744ce902b460c683474fcb3bfd567ffa16b1afb28760405161281c91815260200190565b60405180910390a45050505b816001600160a01b0316867fd2aa34a4fdbbc6dff6a3e56f46e0f3ae2a31d7785ff3487aa5c95c642acea5018360405161286491815260200190565b60405180910390a35050506000838152600a6020526040812080546001600160a01b031990811682556001820183905560028201805461ffff191690556003820183905560048201839055600582019290925560060180549091169055506111a090506001600655565b6000818152600f602052604090205460609060ff1661292f5760405162461bcd60e51b815260206004820152601f60248201527f55524920717565727920666f72206e6f6e6578697374656e7420746f6b656e00604482015260640161090d565b6000828152601060205260409020805461294890613bb8565b80601f016020809104026020016040519081016040528092919081815260200182805461297490613bb8565b80156118cb5780601f10612996576101008083540402835291602001916118cb565b820191906000526020600020905b8154815290600101906020018083116129a45750939695505050505050565b80336129ce826118d7565b6001600160a01b0316146129f45760405162461bcd60e51b815260040161090d90613d97565b6000828152600a6020526040902060020154829060ff16612a275760405162461bcd60e51b815260040161090d90613d14565b6000838152600a6020526040902080546001600160a01b03163314612a7f5760405162461bcd60e51b815260206004820152600e60248201526d2737ba103a34329039b2b63632b960911b604482015260640161090d565b6002810154610100900460ff168015612aa4575060068101546001600160a01b031615155b15612aeb57600681015460058201546040516001600160a01b039092169181156108fc0291906000818181858888f19350505050158015612ae9573d6000803e3d6000fd5b505b612af53385612f91565b6000848152600a602052604080822080546001600160a01b031990811682556001820184905560028201805461ffff1916905560038201849055600482018490556005820184905560069091018054909116905551339186917fef1499b350e05776e60cd2ffcac001569a28e9d574e1f3adc1b3ab264f8ccffd9190a350505050565b6001600160a01b03918216600090815260056020908152604080832093909416825291909152205460ff1690565b6001600160a01b0381166000908152600e60209081526040918290208054835181840281018401909452808452606093928301828280156118cb57602002820191906000526020600020908154815260200190600101908083116118b75750505050509050919050565b612c18612dbc565b6001600160a01b038116612c4257604051631e4fbdf760e01b81526000600482015260240161090d565b6111a081612ff9565b610e32828260405180602001604052806000815250613213565b600082815260106020526040902061115a8282613c32565b6000818152600260205260408120546001600160a01b031680610d6657604051637e27328960e01b81526004810184905260240161090d565b61115a838383600161322b565b6000828152600260205260408120546001600160a01b0390811690831615612cf057612cf0818486613331565b6001600160a01b03811615612d2e57612d0d60008560008061322b565b6001600160a01b038116600090815260036020526040902080546000190190555b6001600160a01b03851615612d5d576001600160a01b0385166000908152600360205260409020805460010190555b60008481526002602052604080822080546001600160a01b0319166001600160a01b0389811691821790925591518793918516917fddf252ad1be2c89b69c2b068fc378daa952ba7f163c4a11628f55a4df523b3ef91a4949350505050565b6007546001600160a01b03163314611e595760405163118cdaa760e01b815233600482015260240161090d565b600260065403612e0c57604051633ee5aeb560e01b815260040160405180910390fd5b6002600655565b6001600160a01b038216612e3d57604051633250574960e11b81526000600482015260240161090d565b6000612e4b83836000612cc3565b90506001600160a01b038116612e7757604051637e27328960e01b81526004810183905260240161090d565b836001600160a01b0316816001600160a01b0316146110b1576040516364283d7b60e01b81526001600160a01b038086166004830152602482018490528216604482015260640161090d565b6001600160a01b0382166000908152600d60205260408120905b81548110156110b15782828281548110612ef957612ef9613dd7565b906000526020600020015403612f7f5781548290612f1990600190613d84565b81548110612f2957612f29613dd7565b9060005260206000200154828281548110612f4657612f46613dd7565b906000526020600020018190555081805480612f6457612f64613ded565b600190038181906000526020600020016000905590556110b1565b80612f8981613b83565b915050612edd565b6001600160a01b0382166000908152600e60205260408120905b81548110156110b15782828281548110612fc757612fc7613dd7565b906000526020600020015403612fe75781548290612f1990600190613d84565b80612ff181613b83565b915050612fab565b600780546001600160a01b038381166001600160a01b0319831681179093556040519116919082907f8be0079c531659141344cd1fd0a4f28419497f9722a3daafe3b4186f6b6457e090600090a35050565b6001600160a01b03821661307d57604051630b61174360e31b81526001600160a01b038316600482015260240161090d565b6001600160a01b03838116600081815260056020908152604080832094871680845294825291829020805460ff191686151590811790915591519182527f17307eab39ab6107e8899845ad3d59bd9653f200f220920489ca2b5937696c31910160405180910390a3505050565b6001600160a01b0383163b1561320c57604051630a85bd0160e11b81526001600160a01b0384169063150b7a029061312c908890889087908790600401613e03565b6020604051808303816000875af1925050508015613167575060408051601f3d908101601f1916820190925261316491810190613e36565b60015b6131d0573d808015613195576040519150601f19603f3d011682016040523d82523d6000602084013e61319a565b606091505b5080516000036131c857604051633250574960e11b81526001600160a01b038516600482015260240161090d565b805160208201fd5b6001600160e01b03198116630a85bd0160e11b1461224957604051633250574960e11b81526001600160a01b038516600482015260240161090d565b5050505050565b61321d8383613395565b61115a3360008585856130ea565b808061323f57506001600160a01b03821615155b1561330157600061324f84612c7d565b90506001600160a01b0383161580159061327b5750826001600160a01b0316816001600160a01b031614155b801561328e575061328c8184612b78565b155b156132b75760405163a9fbf51f60e01b81526001600160a01b038416600482015260240161090d565b81156132ff5783856001600160a01b0316826001600160a01b03167f8c5be1e5ebec7d5bd14f71427d1e84f3dd0314c0f7b2291e5b200ac8c7c3b92560405160405180910390a45b505b5050600090815260046020526040902080546001600160a01b0319166001600160a01b0392909216919091179055565b61333c8383836133fa565b61115a576001600160a01b03831661336a57604051637e27328960e01b81526004810182905260240161090d565b60405163177e802f60e01b81526001600160a01b03831660048201526024810182905260440161090d565b6001600160a01b0382166133bf57604051633250574960e11b81526000600482015260240161090d565b60006133cd83836000612cc3565b90506001600160a01b0381161561115a576040516339e3563760e11b81526000600482015260240161090d565b60006001600160a01b038316158015906134585750826001600160a01b0316846001600160a01b0316148061343457506134348484612b78565b8061345857506000828152600460205260409020546001600160a01b038481169116145b949350505050565b82805482825590600052602060002090810192821561349b579160200282015b8281111561349b578251825591602001919060010190613480565b506134a79291506134ab565b5090565b5b808211156134a757600081556001016134ac565b634e487b7160e01b600052604160045260246000fd5b600067ffffffffffffffff808411156134f1576134f16134c0565b604051601f8501601f19908116603f01168101908282118183101715613519576135196134c0565b8160405280935085815286868601111561353257600080fd5b858560208301376000602087830101525050509392505050565b600082601f83011261355d57600080fd5b61356c838335602085016134d6565b9392505050565b60008060008060008060c0878903121561358c57600080fd5b863567ffffffffffffffff808211156135a457600080fd5b6135b08a838b0161354c565b975060208901359150808211156135c657600080fd5b6135d28a838b0161354c565b965060408901359150808211156135e857600080fd5b6135f48a838b0161354c565b9550606089013591508082111561360a57600080fd5b6136168a838b0161354c565b94506080890135935060a089013591508082111561363357600080fd5b5061364089828a0161354c565b9150509295509295509295565b60006020828403121561365f57600080fd5b5035919050565b6001600160e01b0319811681146111a057600080fd5b60006020828403121561368e57600080fd5b813561356c81613666565b60005b838110156136b457818101518382015260200161369c565b50506000910152565b600081518084526136d5816020860160208601613699565b601f01601f19169290920160200192915050565b60208152600061356c60208301846136bd565b80356001600160a01b038116811461371357600080fd5b919050565b6000806040838503121561372b57600080fd5b613734836136fc565b946020939093013593505050565b60006020828403121561375457600080fd5b813567ffffffffffffffff81111561376b57600080fd5b6134588482850161354c565b600081518084526020808501945080840160005b838110156137a75781518752958201959082019060010161378b565b509495945050505050565b602081526000825160a060208401526137ce60c08401826136bd565b90506020840151601f19808584030160408601526137ec83836136bd565b60408701516001600160a01b031660608781019190915287015186820390920160808701529250905061381f8282613777565b9150506080840151151560a08401528091505092915050565b60008060006060848603121561384d57600080fd5b613856846136fc565b9250613864602085016136fc565b9150604084013590509250925092565b60006101008083526138888184018c6136bd565b9050828103602084015261389c818b6136bd565b905082810360408401526138b0818a6136bd565b905082810360608401526138c481896136bd565b608084018890526001600160a01b03871660a085015260c0840186905283810360e085015290506138f581856136bd565b9b9a5050505050505050505050565b60006020828403121561391657600080fd5b61356c826136fc565b60208152600061356c6020830184613777565b60808152600061394560808301876136bd565b828103602084015261395781876136bd565b6001600160a01b03959095166040840152505090151560609091015292915050565b60208152600082516101008060208501526139986101208501836136bd565b91506020850151601f19808685030160408701526139b684836136bd565b935060408701519150808685030160608701526139d384836136bd565b935060608701519150808685030160808701526139f084836136bd565b9350608087015160a087015260a08701519150613a1860c08701836001600160a01b03169052565b60c087015160e087015260e0870151915080868503018387015250613a3d83826136bd565b9695505050505050565b8035801515811461371357600080fd5b60008060008060808587031215613a6d57600080fd5b8435935060208501359250613a8460408601613a47565b9396929550929360600135925050565b60008060408385031215613aa757600080fd5b613ab0836136fc565b9150613abe60208401613a47565b90509250929050565b60008060008060808587031215613add57600080fd5b613ae6856136fc565b9350613af4602086016136fc565b925060408501359150606085013567ffffffffffffffff811115613b1757600080fd5b8501601f81018713613b2857600080fd5b613b37878235602084016134d6565b91505092959194509250565b60008060408385031215613b5657600080fd5b613b5f836136fc565b9150613abe602084016136fc565b634e487b7160e01b600052601160045260246000fd5b600060018201613b9557613b95613b6d565b5060010190565b60008251613bae818460208701613699565b9190910192915050565b600181811c90821680613bcc57607f821691505b602082108103611df957634e487b7160e01b600052602260045260246000fd5b601f82111561115a57600081815260208120601f850160051c81016020861015613c135750805b601f850160051c820191505b8181101561224957828155600101613c1f565b815167ffffffffffffffff811115613c4c57613c4c6134c0565b613c6081613c5a8454613bb8565b84613bec565b602080601f831160018114613c955760008415613c7d5750858301515b600019600386901b1c1916600185901b178555612249565b600085815260208120601f198616915b82811015613cc457888601518255948401946001909101908401613ca5565b5085821015613ce25787850151600019600388901b60f8161c191681555b5050505050600190811b01905550565b604081526000613d0560408301856136bd565b90508260208301529392505050565b60208082526017908201527f4e4654206e6f74206c697374656420666f722073616c65000000000000000000604082015260600190565b8082028115828204841417610d6657610d66613b6d565b600082613d7f57634e487b7160e01b600052601260045260246000fd5b500490565b81810381811115610d6657610d66613b6d565b6020808252601390820152722737ba103a3432903a37b5b2b71037bbb732b960691b604082015260600190565b80820180821115610d6657610d66613b6d565b634e487b7160e01b600052603260045260246000fd5b634e487b7160e01b600052603160045260246000fd5b6001600160a01b0385811682528416602082015260408101839052608060608201819052600090613a3d908301846136bd565b600060208284031215613e4857600080fd5b815161356c8161366656fea264697066735822122005b3137bd42224ff0364f3d927c60b5b7b545360ddce68690b9061ba7d1f2c4164736f6c63430008140033",
  "linkReferences": {},
  "deployedLinkReferences": {}
}